:03000000020800F3
:0C080000787FE4F6D8FD75811B020847E4
:0E096E000C0BFF094DFF095FFF09920000000E
:1008D9007518FFE4F508430A0112098B758901753A
:1008E900A882758AF0758CD8D28CE50A30E0FB7B3A
:0F08F900007A00790B120908530AFED2AF80EB88
:03000B0002097D6A
:0E097D00430A01C28D758AF0758CD8C2AF3264
:10094D00859009E50965186005AF9012092C850998
:02095D0018225E
:0F095F000517E517C394644005B290E4F517221D
:010992002242
:100908008B198A1A891BAB19AA1AA91B12088CE918
:100918004A60101208AC7403251BF51BE4351AF560
:040928001A80E3222C
:07098B00D2A0D2A1C2A222FA
:10092C00C2A27E07EFA806088002C313D8FC13925C
:10093C00A0C2A1D2A11EC3EE6480948050E6D2A2C4
:01094C002288
:10080C000208D9E493A3F8E493A34003F68001F221
:10081C0008DFF48029E493A3F85407240CC8C333ED
:10082C00C4540F4420C8834004F456800146F6DFBC
:10083C00E4800B010204081020408090096EE47ED5
:10084C00019360BCA3FF543F30E509541FFEE493B1
:10085C00A360010ECF54C025E060A840B8E493A378
:10086C00FAE493A3F8E493A3C8C582C8CAC583CAA3
:10087C00F0A3C8C582C8CAC583CADFE9DEE780BE5B
:01097C00007A
:10088C00BB010789828A830208BB5005E9F802087C
:10089C00B2BBFE05E9F80208C489828A830208CD3E
:0608AC008A838982E473D7
:0908B200E6FB08E6FA08E6F9226B
:0908BB00E0FBA3E0FAA3E0F9223E
:0908C400E2FB08E2FA08E2F92265
:0C08CD00E493FB740193FA740293F92287
:00000001FF
