:0300000002089B58
:0C089B00787FE4F6D8FD75810702088123
:10080000202020616C6274726F6E696373202020F7
:100810000020616C6274726F6E6963732E6F726711
:020820002000B6
:0D0881001208CC120857120822E4FEFF22D4
:0308CC000208BF60
:100857001208BF7F381208A77F061208A77F8012E9
:0708670008A77F0E0208A79D
:0408C7007FFADFFED7
:0108CB00220A
:0808BF00C2A0C2A1E4F58022F1
:0C08A7008F80C2A0D2A11208C7C2A122FB
:0C08B3008F80D2A0D2A11208C7C2A122DF
:10086E0012083EFF600C1208B3740129F9E43AFA3B
:03087E0080EE22E7
:0C088E00E4FEEFD3946340027E63AF06EB
:01089A00223B
:100822007F801208A77BFF7A08790012086E7FC0CA
:0C0832001208A77A08791112086E80FEE7
:10083E00BB010689828A83E0225002E722BBFE02B8
:09084E00E32289828A83E49322EB
:00000001FF
